{
  "contractName": "createTransaction",
  "abi": [
    {
      "inputs": [
        {
          "internalType": "address",
          "name": "",
          "type": "address"
        }
      ],
      "name": "transactions",
      "outputs": [
        {
          "internalType": "string",
          "name": "updatedDateTime",
          "type": "string"
        },
        {
          "internalType": "string",
          "name": "orderId",
          "type": "string"
        },
        {
          "internalType": "address",
          "name": "updatedBy",
          "type": "address"
        }
      ],
      "stateMutability": "view",
      "type": "function"
    },
    {
      "inputs": [
        {
          "internalType": "string",
          "name": "_updatedDateTime",
          "type": "string"
        },
        {
          "internalType": "string",
          "name": "orderId",
          "type": "string"
        }
      ],
      "name": "createNewTransaction",
      "outputs": [],
      "stateMutability": "nonpayable",
      "type": "function"
    },
    {
      "inputs": [
        {
          "internalType": "address",
          "name": "_senderAddress",
          "type": "address"
        }
      ],
      "name": "getTransaction",
      "outputs": [
        {
          "internalType": "string",
          "name": "",
          "type": "string"
        },
        {
          "internalType": "string",
          "name": "",
          "type": "string"
        }
      ],
      "stateMutability": "view",
      "type": "function"
    }
  ],
  "bytecode": "0x608060405234801561000f575f80fd5b50610b208061001d5f395ff3fe608060405234801561000f575f80fd5b506004361061003f575f3560e01c8063559b2fed146100435780637bb863791461005f578063c32fdf3414610090575b5f80fd5b61005d6004803603810190610058919061061c565b6100c2565b005b610079600480360381019061007491906106ec565b6101ab565b604051610087929190610791565b60405180910390f35b6100aa60048036038101906100a591906106ec565b61037f565b6040516100b9939291906107d5565b60405180910390f35b5f60405180606001604052808481526020018381526020013373ffffffffffffffffffffffffffffffffffffffff168152509050805f803373ffffffffffffffffffffffffffffffffffffffff1673ffffffffffffffffffffffffffffffffffffffff1681526020019081526020015f205f820151815f0190816101469190610a1b565b50602082015181600101908161015c9190610a1b565b506040820151816002015f6101000a81548173ffffffffffffffffffffffffffffffffffffffff021916908373ffffffffffffffffffffffffffffffffffffffff160217905550905050505050565b6060805f805f8573ffffffffffffffffffffffffffffffffffffffff1673ffffffffffffffffffffffffffffffffffffffff1681526020019081526020015f206040518060600160405290815f8201805461020590610845565b80601f016020809104026020016040519081016040528092919081815260200182805461023190610845565b801561027c5780601f106102535761010080835404028352916020019161027c565b820191905f5260205f20905b81548152906001019060200180831161025f57829003601f168201915b5050505050815260200160018201805461029590610845565b80601f01602080910402602001604051908101604052809291908181526020018280546102c190610845565b801561030c5780601f106102e35761010080835404028352916020019161030c565b820191905f5260205f20905b8154815290600101906020018083116102ef57829003601f168201915b50505050508152602001600282015f9054906101000a900473ffffffffffffffffffffffffffffffffffffffff1673ffffffffffffffffffffffffffffffffffffffff1673ffffffffffffffffffffffffffffffffffffffff168152505090508060200151815f01519250925050915091565b5f602052805f5260405f205f91509050805f01805461039d90610845565b80601f01602080910402602001604051908101604052809291908181526020018280546103c990610845565b80156104145780601f106103eb57610100808354040283529160200191610414565b820191905f5260205f20905b8154815290600101906020018083116103f757829003601f168201915b50505050509080600101805461042990610845565b80601f016020809104026020016040519081016040528092919081815260200182805461045590610845565b80156104a05780601f10610477576101008083540402835291602001916104a0565b820191905f5260205f20905b81548152906001019060200180831161048357829003601f168201915b505050505090806002015f9054906101000a900473ffffffffffffffffffffffffffffffffffffffff16905083565b5f604051905090565b5f80fd5b5f80fd5b5f80fd5b5f80fd5b5f601f19601f8301169050919050565b7f4e487b71000000000000000000000000000000000000000000000000000000005f52604160045260245ffd5b61052e826104e8565b810181811067ffffffffffffffff8211171561054d5761054c6104f8565b5b80604052505050565b5f61055f6104cf565b905061056b8282610525565b919050565b5f67ffffffffffffffff82111561058a576105896104f8565b5b610593826104e8565b9050602081019050919050565b828183375f83830152505050565b5f6105c06105bb84610570565b610556565b9050828152602081018484840111156105dc576105db6104e4565b5b6105e78482856105a0565b509392505050565b5f82601f830112610603576106026104e0565b5b81356106138482602086016105ae565b91505092915050565b5f8060408385031215610632576106316104d8565b5b5f83013567ffffffffffffffff81111561064f5761064e6104dc565b5b61065b858286016105ef565b925050602083013567ffffffffffffffff81111561067c5761067b6104dc565b5b610688858286016105ef565b9150509250929050565b5f73ffffffffffffffffffffffffffffffffffffffff82169050919050565b5f6106bb82610692565b9050919050565b6106cb816106b1565b81146106d5575f80fd5b50565b5f813590506106e6816106c2565b92915050565b5f60208284031215610701576107006104d8565b5b5f61070e848285016106d8565b91505092915050565b5f81519050919050565b5f82825260208201905092915050565b5f5b8381101561074e578082015181840152602081019050610733565b5f8484015250505050565b5f61076382610717565b61076d8185610721565b935061077d818560208601610731565b610786816104e8565b840191505092915050565b5f6040820190508181035f8301526107a98185610759565b905081810360208301526107bd8184610759565b90509392505050565b6107cf816106b1565b82525050565b5f6060820190508181035f8301526107ed8186610759565b905081810360208301526108018185610759565b905061081060408301846107c6565b949350505050565b7f4e487b71000000000000000000000000000000000000000000000000000000005f52602260045260245ffd5b5f600282049050600182168061085c57607f821691505b60208210810361086f5761086e610818565b5b50919050565b5f819050815f5260205f209050919050565b5f6020601f8301049050919050565b5f82821b905092915050565b5f600883026108d17fffffffffffffffffffffffffffffffffffffffffffffffffffffffffffffffff82610896565b6108db8683610896565b95508019841693508086168417925050509392505050565b5f819050919050565b5f819050919050565b5f61091f61091a610915846108f3565b6108fc565b6108f3565b9050919050565b5f819050919050565b61093883610905565b61094c61094482610926565b8484546108a2565b825550505050565b5f90565b610960610954565b61096b81848461092f565b505050565b5b8181101561098e576109835f82610958565b600181019050610971565b5050565b601f8211156109d3576109a481610875565b6109ad84610887565b810160208510156109bc578190505b6109d06109c885610887565b830182610970565b50505b505050565b5f82821c905092915050565b5f6109f35f19846008026109d8565b1980831691505092915050565b5f610a0b83836109e4565b9150826002028217905092915050565b610a2482610717565b67ffffffffffffffff811115610a3d57610a3c6104f8565b5b610a478254610845565b610a52828285610992565b5f60209050601f831160018114610a83575f8415610a71578287015190505b610a7b8582610a00565b865550610ae2565b601f198416610a9186610875565b5f5b82811015610ab857848901518255600182019150602085019450602081019050610a93565b86831015610ad55784890151610ad1601f8916826109e4565b8355505b6001600288020188555050505b50505050505056fea2646970667358221220b8052a9dd012388d1fd97f08a7b5ffd779947375b200b8da39335120b6bc216e64736f6c63430008150033",
  "immutableReferences": {},
  "source": "// SPDX-License-Identifier: MIT\r\npragma solidity ^0.8.21;\r\n\r\n//creating smart contract\r\ncontract createTransaction {\r\n    mapping(address => Transaction) public transactions;\r\n\r\n    struct Transaction {\r\n        string updatedDateTime;\r\n        string orderId;\r\n        address updatedBy;\r\n    }\r\n\r\n    function createNewTransaction(\r\n        string memory _updatedDateTime,\r\n        string memory orderId\r\n    ) public {\r\n        Transaction memory newTransaction = Transaction(\r\n            _updatedDateTime,\r\n            orderId,\r\n            msg.sender\r\n        );\r\n        transactions[msg.sender] = newTransaction;\r\n    }\r\n\r\n    function getTransaction(\r\n        address _senderAddress\r\n    ) public view returns (string memory, string memory) {\r\n        Transaction memory getting = transactions[_senderAddress];\r\n        return (getting.orderId, getting.updatedDateTime);\r\n    }\r\n}\r\n",
  "sourcePath": "C:\\Users\\kbpoh\\Documents\\GitHub\\blockchain\\back-end\\contracts\\MyContract.sol",
  "compiler": {
    "name": "solc",
    "version": "0.8.21+commit.d9974bed.Emscripten.clang"
  },
  "schemaVersion": "3.4.16",
  "updatedAt": "2024-02-01T11:38:33.829Z",
  "devdoc": {
    "kind": "dev",
    "methods": {},
    "version": 1
  },
  "userdoc": {
    "kind": "user",
    "methods": {},
    "version": 1
  }
}