{
  "contractName": "CreateUser",
  "abi": [
    {
      "inputs": [],
      "name": "User",
      "outputs": [],
      "stateMutability": "nonpayable",
      "type": "function"
    },
    {
      "inputs": [
        {
          "internalType": "address",
          "name": "userAddress",
          "type": "address"
        }
      ],
      "name": "hasUser",
      "outputs": [
        {
          "internalType": "bool",
          "name": "hasIndeed",
          "type": "bool"
        }
      ],
      "stateMutability": "view",
      "type": "function"
    },
    {
      "inputs": [
        {
          "internalType": "bytes16",
          "name": "username",
          "type": "bytes16"
        }
      ],
      "name": "usernameTaken",
      "outputs": [
        {
          "internalType": "bool",
          "name": "takenIndeed",
          "type": "bool"
        }
      ],
      "stateMutability": "view",
      "type": "function"
    },
    {
      "inputs": [
        {
          "internalType": "bytes16",
          "name": "username",
          "type": "bytes16"
        },
        {
          "internalType": "bytes",
          "name": "ipfsHash",
          "type": "bytes"
        }
      ],
      "name": "createUser",
      "outputs": [
        {
          "internalType": "bool",
          "name": "success",
          "type": "bool"
        }
      ],
      "stateMutability": "nonpayable",
      "type": "function"
    },
    {
      "inputs": [
        {
          "internalType": "bytes",
          "name": "ipfsHash",
          "type": "bytes"
        }
      ],
      "name": "updateUser",
      "outputs": [
        {
          "internalType": "bool",
          "name": "success",
          "type": "bool"
        }
      ],
      "stateMutability": "nonpayable",
      "type": "function"
    },
    {
      "inputs": [],
      "name": "getUserCount",
      "outputs": [
        {
          "internalType": "uint256",
          "name": "count",
          "type": "uint256"
        }
      ],
      "stateMutability": "view",
      "type": "function"
    },
    {
      "inputs": [
        {
          "internalType": "uint256",
          "name": "index",
          "type": "uint256"
        }
      ],
      "name": "getUserByIndex",
      "outputs": [
        {
          "internalType": "address",
          "name": "userAddress",
          "type": "address"
        },
        {
          "internalType": "bytes16",
          "name": "username",
          "type": "bytes16"
        },
        {
          "internalType": "bytes",
          "name": "ipfsHash",
          "type": "bytes"
        }
      ],
      "stateMutability": "view",
      "type": "function"
    },
    {
      "inputs": [
        {
          "internalType": "uint256",
          "name": "index",
          "type": "uint256"
        }
      ],
      "name": "getAddressByIndex",
      "outputs": [
        {
          "internalType": "address",
          "name": "userAddress",
          "type": "address"
        }
      ],
      "stateMutability": "view",
      "type": "function"
    },
    {
      "inputs": [
        {
          "internalType": "uint256",
          "name": "index",
          "type": "uint256"
        }
      ],
      "name": "getUsernameByIndex",
      "outputs": [
        {
          "internalType": "bytes16",
          "name": "username",
          "type": "bytes16"
        }
      ],
      "stateMutability": "view",
      "type": "function"
    },
    {
      "inputs": [
        {
          "internalType": "uint256",
          "name": "index",
          "type": "uint256"
        }
      ],
      "name": "getIpfsHashByIndex",
      "outputs": [
        {
          "internalType": "bytes",
          "name": "ipfsHash",
          "type": "bytes"
        }
      ],
      "stateMutability": "view",
      "type": "function"
    },
    {
      "inputs": [
        {
          "internalType": "address",
          "name": "userAddress",
          "type": "address"
        }
      ],
      "name": "getUserByAddress",
      "outputs": [
        {
          "internalType": "uint256",
          "name": "index",
          "type": "uint256"
        },
        {
          "internalType": "bytes16",
          "name": "username",
          "type": "bytes16"
        },
        {
          "internalType": "bytes",
          "name": "ipfsHash",
          "type": "bytes"
        }
      ],
      "stateMutability": "view",
      "type": "function"
    },
    {
      "inputs": [
        {
          "internalType": "address",
          "name": "userAddress",
          "type": "address"
        }
      ],
      "name": "getIndexByAddress",
      "outputs": [
        {
          "internalType": "uint256",
          "name": "index",
          "type": "uint256"
        }
      ],
      "stateMutability": "view",
      "type": "function"
    },
    {
      "inputs": [
        {
          "internalType": "address",
          "name": "userAddress",
          "type": "address"
        }
      ],
      "name": "getUsernameByAddress",
      "outputs": [
        {
          "internalType": "bytes16",
          "name": "username",
          "type": "bytes16"
        }
      ],
      "stateMutability": "view",
      "type": "function"
    },
    {
      "inputs": [
        {
          "internalType": "address",
          "name": "userAddress",
          "type": "address"
        }
      ],
      "name": "getIpfsHashByAddress",
      "outputs": [
        {
          "internalType": "bytes",
          "name": "ipfsHash",
          "type": "bytes"
        }
      ],
      "stateMutability": "view",
      "type": "function"
    },
    {
      "inputs": [
        {
          "internalType": "bytes16",
          "name": "username",
          "type": "bytes16"
        }
      ],
      "name": "getUserByUsername",
      "outputs": [
        {
          "internalType": "uint256",
          "name": "index",
          "type": "uint256"
        },
        {
          "internalType": "address",
          "name": "userAddress",
          "type": "address"
        },
        {
          "internalType": "bytes",
          "name": "ipfsHash",
          "type": "bytes"
        }
      ],
      "stateMutability": "view",
      "type": "function"
    },
    {
      "inputs": [
        {
          "internalType": "bytes16",
          "name": "username",
          "type": "bytes16"
        }
      ],
      "name": "getIndexByUsername",
      "outputs": [
        {
          "internalType": "uint256",
          "name": "index",
          "type": "uint256"
        }
      ],
      "stateMutability": "view",
      "type": "function"
    },
    {
      "inputs": [
        {
          "internalType": "bytes16",
          "name": "username",
          "type": "bytes16"
        }
      ],
      "name": "getAddressByUsername",
      "outputs": [
        {
          "internalType": "address",
          "name": "userAddress",
          "type": "address"
        }
      ],
      "stateMutability": "view",
      "type": "function"
    },
    {
      "inputs": [
        {
          "internalType": "bytes16",
          "name": "username",
          "type": "bytes16"
        }
      ],
      "name": "getIpfsHashByUsername",
      "outputs": [
        {
          "internalType": "bytes",
          "name": "ipfsHash",
          "type": "bytes"
        }
      ],
      "stateMutability": "view",
      "type": "function"
    }
  ],
  "bytecode": "0x608060405234801561000f575f80fd5b50611c768061001d5f395ff3fe608060405234801561000f575f80fd5b5060043610610114575f3560e01c806363db68db116100a0578063a74380a61161006f578063a74380a614610366578063b5cb15f714610396578063ce10cf88146103b4578063ed1a998d146103e4578063ff5d32fe1461041457610114565b806363db68db146102a257806369c212f6146102d25780638de094d514610304578063a6c4ec0e1461033657610114565b806316b7addf116100e757806316b7addf146101b25780631973ef91146101e257806329f78d8814610212578063402f707e146102425780634fd3e6831461027257610114565b8063026d1170146101185780630ab7c933146101485780630bac9fe7146101785780631429e26c146101a8575b5f80fd5b610132600480360381019061012d9190611414565b610446565b60405161013f9190611475565b60405180910390f35b610162600480360381019061015d91906114e3565b6104c7565b60405161016f9190611588565b60405180910390f35b610192600480360381019061018d91906115db565b6105bb565b60405161019f9190611615565b60405180910390f35b6101b0610608565b005b6101cc60048036038101906101c791906114e3565b610740565b6040516101d99190611475565b60405180910390f35b6101fc60048036038101906101f79190611688565b6107bf565b60405161020991906116c2565b60405180910390f35b61022c600480360381019061022791906115db565b610815565b6040516102399190611588565b60405180910390f35b61025c600480360381019061025791906116db565b6108d1565b6040516102699190611475565b60405180910390f35b61028c600480360381019061028791906114e3565b610a86565b60405161029991906116c2565b60405180910390f35b6102bc60048036038101906102b791906114e3565b610ad7565b6040516102c99190611744565b60405180910390f35b6102ec60048036038101906102e79190611688565b610b63565b6040516102fb9392919061175d565b60405180910390f35b61031e600480360381019061031991906114e3565b610d14565b60405161032d93929190611799565b60405180910390f35b610350600480360381019061034b9190611688565b610ef4565b60405161035d9190611475565b60405180910390f35b610380600480360381019061037b9190611688565b610fac565b60405161038d9190611588565b60405180910390f35b61039e6110a5565b6040516103ab91906116c2565b60405180910390f35b6103ce60048036038101906103c991906115db565b6110b1565b6040516103db9190611744565b60405180910390f35b6103fe60048036038101906103f99190611688565b611105565b60405161040b9190611615565b60405180910390f35b61042e600480360381019061042991906115db565b61118f565b60405161043d939291906117d5565b60405180910390f35b5f61045033610ef4565b610458575f80fd5b8160045f803373ffffffffffffffffffffffffffffffffffffffff1673ffffffffffffffffffffffffffffffffffffffff1681526020019081526020015f2054815481106104a9576104a8611811565b5b905f5260205f200190816104bd9190611a38565b5060019050919050565b60606104d282610740565b6104da575f80fd5b600460015f846fffffffffffffffffffffffffffffffff19166fffffffffffffffffffffffffffffffff191681526020019081526020015f20548154811061052557610524611811565b5b905f5260205f200180546105389061186b565b80601f01602080910402602001604051908101604052809291908181526020018280546105649061186b565b80156105af5780601f10610586576101008083540402835291602001916105af565b820191905f5260205f20905b81548152906001019060200180831161059257829003601f168201915b50505050509050919050565b5f60028054905082106105cc575f80fd5b600382815481106105e0576105df611811565b5b905f5260205f2090600291828204019190066010029054906101000a900460801b9050919050565b600233908060018154018082558091505060019003905f5260205f20015f9091909190916101000a81548173ffffffffffffffffffffffffffffffffffffffff021916908373ffffffffffffffffffffffffffffffffffffffff16021790555060038060018154018082558091505060019003905f5260205f2090600291828204019190066010027f73656c6600000000000000000000000000000000000000000000000000000000909190916101000a8154816fffffffffffffffffffffffffffffffff021916908360801c021790555060048060018154018082558091505060019003905f5260205f20015f6040518060400160405280600d81526020017f6e6f742d617661696c61626c65000000000000000000000000000000000000008152509091909150908161073d9190611b11565b50565b5f8060015f846fffffffffffffffffffffffffffffffff19166fffffffffffffffffffffffffffffffff191681526020019081526020015f205411806107b857507f73656c6600000000000000000000000000000000000000000000000000000000826fffffffffffffffffffffffffffffffff1916145b9050919050565b5f6107c982610ef4565b6107d1575f80fd5b5f808373ffffffffffffffffffffffffffffffffffffffff1673ffffffffffffffffffffffffffffffffffffffff1681526020019081526020015f20549050919050565b60606002805490508210610827575f80fd5b6004828154811061083b5761083a611811565b5b905f5260205f2001805461084e9061186b565b80601f016020809104026020016040519081016040528092919081815260200182805461087a9061186b565b80156108c55780601f1061089c576101008083540402835291602001916108c5565b820191905f5260205f20905b8154815290600101906020018083116108a857829003601f168201915b50505050509050919050565b5f6108db33610ef4565b156108e4575f80fd5b6108ed83610740565b156108f6575f80fd5b600233908060018154018082558091505060019003905f5260205f20015f9091909190916101000a81548173ffffffffffffffffffffffffffffffffffffffff021916908373ffffffffffffffffffffffffffffffffffffffff160217905550600383908060018154018082558091505060019003905f5260205f2090600291828204019190066010029091909190916101000a8154816fffffffffffffffffffffffffffffffff021916908360801c0217905550600482908060018154018082558091505060019003905f5260205f20015f9091909190915090816109dc9190611a38565b5060016002805490506109ef9190611c0d565b5f803373ffffffffffffffffffffffffffffffffffffffff1673ffffffffffffffffffffffffffffffffffffffff1681526020019081526020015f20819055506001600280549050610a419190611c0d565b60015f856fffffffffffffffffffffffffffffffff19166fffffffffffffffffffffffffffffffff191681526020019081526020015f20819055506001905092915050565b5f610a9082610740565b610a98575f80fd5b60015f836fffffffffffffffffffffffffffffffff19166fffffffffffffffffffffffffffffffff191681526020019081526020015f20549050919050565b5f610ae182610740565b610ae9575f80fd5b600260015f846fffffffffffffffffffffffffffffffff19166fffffffffffffffffffffffffffffffff191681526020019081526020015f205481548110610b3457610b33611811565b5b905f5260205f20015f9054906101000a900473ffffffffffffffffffffffffffffffffffffffff169050919050565b5f8060606002805490508310610b77575f80fd5b5f808573ffffffffffffffffffffffffffffffffffffffff1673ffffffffffffffffffffffffffffffffffffffff1681526020019081526020015f205460035f808773ffffffffffffffffffffffffffffffffffffffff1673ffffffffffffffffffffffffffffffffffffffff1681526020019081526020015f205481548110610c0457610c03611811565b5b905f5260205f2090600291828204019190066010029054906101000a900460801b60045f808873ffffffffffffffffffffffffffffffffffffffff1673ffffffffffffffffffffffffffffffffffffffff1681526020019081526020015f205481548110610c7557610c74611811565b5b905f5260205f2001808054610c899061186b565b80601f0160208091040260200160405190810160405280929190818152602001828054610cb59061186b565b8015610d005780601f10610cd757610100808354040283529160200191610d00565b820191905f5260205f20905b815481529060010190602001808311610ce357829003601f168201915b505050505090509250925092509193909250565b5f80606060028054905060015f866fffffffffffffffffffffffffffffffff19166fffffffffffffffffffffffffffffffff191681526020019081526020015f205410610d5f575f80fd5b60015f856fffffffffffffffffffffffffffffffff19166fffffffffffffffffffffffffffffffff191681526020019081526020015f2054600260015f876fffffffffffffffffffffffffffffffff19166fffffffffffffffffffffffffffffffff191681526020019081526020015f205481548110610de257610de1611811565b5b905f5260205f20015f9054906101000a900473ffffffffffffffffffffffffffffffffffffffff16600460015f886fffffffffffffffffffffffffffffffff19166fffffffffffffffffffffffffffffffff191681526020019081526020015f205481548110610e5557610e54611811565b5b905f5260205f2001808054610e699061186b565b80601f0160208091040260200160405190810160405280929190818152602001828054610e959061186b565b8015610ee05780601f10610eb757610100808354040283529160200191610ee0565b820191905f5260205f20905b815481529060010190602001808311610ec357829003601f168201915b505050505090509250925092509193909250565b5f805f808473ffffffffffffffffffffffffffffffffffffffff1673ffffffffffffffffffffffffffffffffffffffff1681526020019081526020015f20541180610fa5575060025f81548110610f4e57610f4d611811565b5b905f5260205f20015f9054906101000a900473ffffffffffffffffffffffffffffffffffffffff1673ffffffffffffffffffffffffffffffffffffffff168273ffffffffffffffffffffffffffffffffffffffff16145b9050919050565b6060610fb782610ef4565b610fbf575f80fd5b60045f808473ffffffffffffffffffffffffffffffffffffffff1673ffffffffffffffffffffffffffffffffffffffff1681526020019081526020015f20548154811061100f5761100e611811565b5b905f5260205f200180546110229061186b565b80601f016020809104026020016040519081016040528092919081815260200182805461104e9061186b565b80156110995780601f1061107057610100808354040283529160200191611099565b820191905f5260205f20905b81548152906001019060200180831161107c57829003601f168201915b50505050509050919050565b5f600280549050905090565b5f60028054905082106110c2575f80fd5b600282815481106110d6576110d5611811565b5b905f5260205f20015f9054906101000a900473ffffffffffffffffffffffffffffffffffffffff169050919050565b5f61110f82610ef4565b611117575f80fd5b60035f808473ffffffffffffffffffffffffffffffffffffffff1673ffffffffffffffffffffffffffffffffffffffff1681526020019081526020015f20548154811061116757611166611811565b5b905f5260205f2090600291828204019190066010029054906101000a900460801b9050919050565b5f80606060028054905084106111a3575f80fd5b600284815481106111b7576111b6611811565b5b905f5260205f20015f9054906101000a900473ffffffffffffffffffffffffffffffffffffffff16600385815481106111f3576111f2611811565b5b905f5260205f2090600291828204019190066010029054906101000a900460801b6004868154811061122857611227611811565b5b905f5260205f200180805461123c9061186b565b80601f01602080910402602001604051908101604052809291908181526020018280546112689061186b565b80156112b35780601f1061128a576101008083540402835291602001916112b3565b820191905f5260205f20905b81548152906001019060200180831161129657829003601f168201915b505050505090509250925092509193909250565b5f604051905090565b5f80fd5b5f80fd5b5f80fd5b5f80fd5b5f601f19601f8301169050919050565b7f4e487b71000000000000000000000000000000000000000000000000000000005f52604160045260245ffd5b611326826112e0565b810181811067ffffffffffffffff82111715611345576113446112f0565b5b80604052505050565b5f6113576112c7565b9050611363828261131d565b919050565b5f67ffffffffffffffff821115611382576113816112f0565b5b61138b826112e0565b9050602081019050919050565b828183375f83830152505050565b5f6113b86113b384611368565b61134e565b9050828152602081018484840111156113d4576113d36112dc565b5b6113df848285611398565b509392505050565b5f82601f8301126113fb576113fa6112d8565b5b813561140b8482602086016113a6565b91505092915050565b5f60208284031215611429576114286112d0565b5b5f82013567ffffffffffffffff811115611446576114456112d4565b5b611452848285016113e7565b91505092915050565b5f8115159050919050565b61146f8161145b565b82525050565b5f6020820190506114885f830184611466565b92915050565b5f7fffffffffffffffffffffffffffffffff0000000000000000000000000000000082169050919050565b6114c28161148e565b81146114cc575f80fd5b50565b5f813590506114dd816114b9565b92915050565b5f602082840312156114f8576114f76112d0565b5b5f611505848285016114cf565b91505092915050565b5f81519050919050565b5f82825260208201905092915050565b5f5b8381101561154557808201518184015260208101905061152a565b5f8484015250505050565b5f61155a8261150e565b6115648185611518565b9350611574818560208601611528565b61157d816112e0565b840191505092915050565b5f6020820190508181035f8301526115a08184611550565b905092915050565b5f819050919050565b6115ba816115a8565b81146115c4575f80fd5b50565b5f813590506115d5816115b1565b92915050565b5f602082840312156115f0576115ef6112d0565b5b5f6115fd848285016115c7565b91505092915050565b61160f8161148e565b82525050565b5f6020820190506116285f830184611606565b92915050565b5f73ffffffffffffffffffffffffffffffffffffffff82169050919050565b5f6116578261162e565b9050919050565b6116678161164d565b8114611671575f80fd5b50565b5f813590506116828161165e565b92915050565b5f6020828403121561169d5761169c6112d0565b5b5f6116aa84828501611674565b91505092915050565b6116bc816115a8565b82525050565b5f6020820190506116d55f8301846116b3565b92915050565b5f80604083850312156116f1576116f06112d0565b5b5f6116fe858286016114cf565b925050602083013567ffffffffffffffff81111561171f5761171e6112d4565b5b61172b858286016113e7565b9150509250929050565b61173e8161164d565b82525050565b5f6020820190506117575f830184611735565b92915050565b5f6060820190506117705f8301866116b3565b61177d6020830185611606565b818103604083015261178f8184611550565b9050949350505050565b5f6060820190506117ac5f8301866116b3565b6117b96020830185611735565b81810360408301526117cb8184611550565b9050949350505050565b5f6060820190506117e85f830186611735565b6117f56020830185611606565b81810360408301526118078184611550565b9050949350505050565b7f4e487b71000000000000000000000000000000000000000000000000000000005f52603260045260245ffd5b7f4e487b71000000000000000000000000000000000000000000000000000000005f52602260045260245ffd5b5f600282049050600182168061188257607f821691505b6020821081036118955761189461183e565b5b50919050565b5f819050815f5260205f209050919050565b5f6020601f8301049050919050565b5f82821b905092915050565b5f600883026118f77fffffffffffffffffffffffffffffffffffffffffffffffffffffffffffffffff826118bc565b61190186836118bc565b95508019841693508086168417925050509392505050565b5f819050919050565b5f61193c611937611932846115a8565b611919565b6115a8565b9050919050565b5f819050919050565b61195583611922565b61196961196182611943565b8484546118c8565b825550505050565b5f90565b61197d611971565b61198881848461194c565b505050565b5b818110156119ab576119a05f82611975565b60018101905061198e565b5050565b601f8211156119f0576119c18161189b565b6119ca846118ad565b810160208510156119d9578190505b6119ed6119e5856118ad565b83018261198d565b50505b505050565b5f82821c905092915050565b5f611a105f19846008026119f5565b1980831691505092915050565b5f611a288383611a01565b9150826002028217905092915050565b611a418261150e565b67ffffffffffffffff811115611a5a57611a596112f0565b5b611a64825461186b565b611a6f8282856119af565b5f60209050601f831160018114611aa0575f8415611a8e578287015190505b611a988582611a1d565b865550611aff565b601f198416611aae8661189b565b5f5b82811015611ad557848901518255600182019150602085019450602081019050611ab0565b86831015611af25784890151611aee601f891682611a01565b8355505b6001600288020188555050505b505050505050565b5f81519050919050565b611b1a82611b07565b67ffffffffffffffff811115611b3357611b326112f0565b5b611b3d825461186b565b611b488282856119af565b5f60209050601f831160018114611b79575f8415611b67578287015190505b611b718582611a1d565b865550611bd8565b601f198416611b878661189b565b5f5b82811015611bae57848901518255600182019150602085019450602081019050611b89565b86831015611bcb5784890151611bc7601f891682611a01565b8355505b6001600288020188555050505b505050505050565b7f4e487b71000000000000000000000000000000000000000000000000000000005f52601160045260245ffd5b5f611c17826115a8565b9150611c22836115a8565b9250828203905081811115611c3a57611c39611be0565b5b9291505056fea26469706673582212205b96853d5d8926e69438fe9cfa2d3bd06ba4d26ca8e40fb46ceebcf42eb7ceec64736f6c63430008150033",
  "immutableReferences": {},
  "source": "// SPDX-License-Identifier: MIT\r\npragma solidity ^0.8.20;\r\n\r\n//creating smart contract\r\ncontract CreateUser {\r\n    mapping(address => uint) private addressToIndex;\r\n    mapping(bytes16 => uint) private usernameToIndex;\r\n    address[] private addresses;\r\n    bytes16[] private usernames;\r\n    bytes[] private ipfsHashes;\r\n\r\n    function User() public {\r\n        // mappings are virtually initialized to zero values so we need to \"waste\" the first element of the arrays\r\n        // instead of wasting it we use it to create a user for the contract itself\r\n        addresses.push(msg.sender);\r\n        usernames.push(\"self\");\r\n        ipfsHashes.push(\"not-available\");\r\n    }\r\n\r\n    function hasUser(address userAddress) public view returns (bool hasIndeed) {\r\n        return (addressToIndex[userAddress] > 0 || userAddress == addresses[0]);\r\n    }\r\n\r\n    function usernameTaken(\r\n        bytes16 username\r\n    ) public view returns (bool takenIndeed) {\r\n        return (usernameToIndex[username] > 0 || username == \"self\");\r\n    }\r\n\r\n    function createUser(\r\n        bytes16 username,\r\n        bytes memory ipfsHash\r\n    ) public returns (bool success) {\r\n        require(!hasUser(msg.sender));\r\n        require(!usernameTaken(username));\r\n        addresses.push(msg.sender);\r\n        usernames.push(username);\r\n        ipfsHashes.push(ipfsHash);\r\n        addressToIndex[msg.sender] = addresses.length - 1;\r\n        usernameToIndex[username] = addresses.length - 1;\r\n\r\n        return true;\r\n    }\r\n\r\n    function updateUser(bytes memory ipfsHash) public returns (bool success) {\r\n        require(hasUser(msg.sender));\r\n\r\n        ipfsHashes[addressToIndex[msg.sender]] = ipfsHash;\r\n        return true;\r\n    }\r\n\r\n    function getUserCount() public view returns (uint count) {\r\n        return addresses.length;\r\n    }\r\n\r\n    // get by index\r\n    function getUserByIndex(\r\n        uint index\r\n    )\r\n        public\r\n        view\r\n        returns (address userAddress, bytes16 username, bytes memory ipfsHash)\r\n    {\r\n        require(index < addresses.length);\r\n        return (addresses[index], usernames[index], ipfsHashes[index]);\r\n    }\r\n\r\n    function getAddressByIndex(\r\n        uint index\r\n    ) public view returns (address userAddress) {\r\n        require(index < addresses.length);\r\n        return addresses[index];\r\n    }\r\n\r\n    function getUsernameByIndex(\r\n        uint index\r\n    ) public view returns (bytes16 username) {\r\n        require(index < addresses.length);\r\n        return usernames[index];\r\n    }\r\n\r\n    function getIpfsHashByIndex(\r\n        uint index\r\n    ) public view returns (bytes memory ipfsHash) {\r\n        require(index < addresses.length);\r\n        return ipfsHashes[index];\r\n    }\r\n\r\n    // get by address\r\n    function getUserByAddress(\r\n        address userAddress\r\n    )\r\n        public\r\n        view\r\n        returns (uint index, bytes16 username, bytes memory ipfsHash)\r\n    {\r\n        require(index < addresses.length);\r\n        return (\r\n            addressToIndex[userAddress],\r\n            usernames[addressToIndex[userAddress]],\r\n            ipfsHashes[addressToIndex[userAddress]]\r\n        );\r\n    }\r\n\r\n    function getIndexByAddress(\r\n        address userAddress\r\n    ) public view returns (uint index) {\r\n        require(hasUser(userAddress));\r\n        return addressToIndex[userAddress];\r\n    }\r\n\r\n    function getUsernameByAddress(\r\n        address userAddress\r\n    ) public view returns (bytes16 username) {\r\n        require(hasUser(userAddress));\r\n        return usernames[addressToIndex[userAddress]];\r\n    }\r\n\r\n    function getIpfsHashByAddress(\r\n        address userAddress\r\n    ) public view returns (bytes memory ipfsHash) {\r\n        require(hasUser(userAddress));\r\n        return ipfsHashes[addressToIndex[userAddress]];\r\n    }\r\n\r\n    // get by username\r\n    function getUserByUsername(\r\n        bytes16 username\r\n    )\r\n        public\r\n        view\r\n        returns (uint index, address userAddress, bytes memory ipfsHash)\r\n    {\r\n        require(usernameToIndex[username] < addresses.length);\r\n        return (\r\n            usernameToIndex[username],\r\n            addresses[usernameToIndex[username]],\r\n            ipfsHashes[usernameToIndex[username]]\r\n        );\r\n    }\r\n\r\n    function getIndexByUsername(\r\n        bytes16 username\r\n    ) public view returns (uint index) {\r\n        require(usernameTaken(username));\r\n        return usernameToIndex[username];\r\n    }\r\n\r\n    function getAddressByUsername(\r\n        bytes16 username\r\n    ) public view returns (address userAddress) {\r\n        require(usernameTaken(username));\r\n        return addresses[usernameToIndex[username]];\r\n    }\r\n\r\n    function getIpfsHashByUsername(\r\n        bytes16 username\r\n    ) public view returns (bytes memory ipfsHash) {\r\n        require(usernameTaken(username));\r\n        return ipfsHashes[usernameToIndex[username]];\r\n    }\r\n}\r\n",
  "sourcePath": "C:\\Users\\kbpoh\\Documents\\GitHub\\blockchain\\back-end\\contracts\\MyContract.sol",
  "compiler": {
    "name": "solc",
    "version": "0.8.21+commit.d9974bed.Emscripten.clang"
  },
  "schemaVersion": "3.4.16",
  "updatedAt": "2024-02-01T08:05:24.491Z",
  "devdoc": {
    "kind": "dev",
    "methods": {},
    "version": 1
  },
  "userdoc": {
    "kind": "user",
    "methods": {},
    "version": 1
  }
}